:020000020000FC
:040000000C942E002E
:10002C000C9418000F930FB70F93215033950F9129
:10003C000FBF0F913A3109F0189530E1439518959F
:10004C0070E06CE050E8515060407040E0F708956B
:10005C000FEF0DBF08E00EBF04EF0093890004E220
:10006C000093880000E0009380000CE00093810076
:10007C0000916F00026000936F000FEF0AB90FE35D
:10008C0004B9789422E130E140E22030A1F011E88B
:10009C001BB9D6DF11E41BB9D3DF11E21BB9D0DFDA
:1000AC0011E11BB9CDDF1CE01BB9CADF35B9C8DFC4
:1000BC0045B9C6DFEACF25E030E140E22030A1F0BF
:1000CC0011E81BB9BDDF11E41BB9BADF11E21BB992
:1000DC00B7DF11E11BB9B4DF19E01BB9B1DF35B9DA
:1000EC00AFDF45B9ADDFEACF24E130E140E22030AB
:1000FC00A1F011E81BB9A4DF14E41BB9A1DF14E2D1
:10010C001BB99EDF11E11BB99BDF19E01BB998DF0E
:10011C0035B996DF45B994DFEACF24E030E140E20F
:10012C002030A1F011E81BB98BDF12E41BB988DF7A
:10013C0014E21BB985DF11E11BB982DF19E01BB991
:10014C007FDF35B97DDF45B97BDFEACF25E330E1D1
:10015C0040E22030A1F011E81BB972DF11E41BB9A9
:10016C006FDF14E21BB96CDF14E11BB969DF19E016
:10017C001BB966DF35B964DF45B962DFEACF24E02D
:10018C0030E140E22030A1F011E81BB959DF11E455
:10019C001BB956DF12E21BB953DF12E11BB950DF5A
:1001AC0019E01BB94DDF35B94BDF45B949DFEACF53
:1001BC0023E130E140E22030B1F014E81BB940DF1C
:1001CC0011E41BB93DDF11E21BB93ADF11E11BB998
:1001DC0037DF19E01BB934DF35B932DF45B930DF11
:1001EC00EACF0C94480024E030E140E22030C9F31F
:1001FC0012E81BB925DF11E41BB922DF11E21BB990
:10020C001FDF11E11BB91CDF19E01BB919DF35B970
:08021C0017DF45B915DFEACF39
:00000001FF
